:020000040000FA
:0400000032EF00F0EB
:100008005A82FACF01F0FBCF02F0D9CF03F0DACF52
:1000180004F0F2AC19D09DB89EA808D001D814D02D
:100028000500FA6E5050FD6E51500AD09DBA9EAA36
:100038000BD001D809D00500FA6E4E50FD6E4F5016
:10004800FE6EFF6AFA50120004C0DAFF03C0D9FF3F
:1000580002C0FBFF01C0FAFF5A9211006FEF05F0D2
:100068009EEC07F0B3EC07F055EC04F0F28EF28C3E
:10007800200ECD6ECCEC07F0000E066E000E056E5D
:10008800000E086E000E076E7F0E096EFF0E0A6ED8
:1000980027EC03F0000E066E2C0E056E000E086E9F
:1000A800020E076EF70E096EFF0E0A6E27EC03F0BC
:1000B800000E136EE60E126E000E156E060E146E0E
:1000C800ED0E166EFF0E176EEDEC03F0C5EC07F0A3
:1000D800150E2A6E4B0E296EBE0EE82EFED7292E5F
:1000E800FCD72A2EFAD700F000F043EC07F075ECA5
:1000F80007F0E8EC06F00009D8B49CD1490E076E69
:10010800000E086E1AEC06F00009D8A424D0480E98
:10011800076E000E086E1AEC06F00009D8A41BD072
:10012800470E076E000E086E1AEC06F00009D8A4F8
:1001380012D0460E076E000E086E1AEC06F0000983
:10014800D8A409D0450E076E000E086E1AEC06F00A
:100158000009D8B425D0A80E236EFF0E246E30EC0B
:1001680007F0000E066E0A0E056E000E086E030EEE
:10017800076EF20E096EFF0E0A6E27EC03F0000EF2
:10018800066E0A0E056E000E086E050E076EE80E66
:10019800096EFF0E0A6E27EC03F0C5EC07F06DD16F
:1001A800485049C029F02A6A2926000E2A224750B9
:1001B8002926000E2A2246502926000E2A222950D6
:1001C8004518D8A414D149C03DF03E6A3D50296E67
:1001D80048503D6E29C03EF047C03BF03C6A3B505A
:1001E800296E46503B6E29C03CF03B04800E3C58BB
:1001F800D8A009D02D0E536EFF0E3B143B6E7F0E18
:100208003C143C6E3DD0200E536E000E086E640EFA
:10021800076E3BC005F03CC006F083EC06F005C055
:100228000CF006C00DF0000E0F6E0A0E0E6EACEC50
:1002380006F00C50300F546E000E086E0A0E076E52
:100248003BC005F03CC006F083EC06F005C00CF09E
:1002580006C00DF0000E0F6E0A0E0E6EACEC06F026
:100268000C50300F556E3BC00CF03CC00DF0000E2A
:100278000F6E0A0E0E6EACEC06F00C50300F576E77
:10028800E80E3D1808E1030E3E18D8A404D0310E3C
:100298000001906F41D0200E0001906F000E086E93
:1002A800640E076E3DC005F03EC006F083EC06F014
:1002B80005C00CF006C00DF0000E0F6E0A0E0E6E93
:1002C800ACEC06F00C50300F0001916F000E086E78
:1002D8000A0E076E3DC005F03EC006F083EC06F03E
:1002E80005C00CF006C00DF0000E0F6E0A0E0E6E63
:1002F800ACEC06F00C50300F0001926F3DC00CF0D2
:100308003EC00DF0000E0F6E0A0E0E6EACEC06F03D
:100318000C50300F0001946F9B0E236EFF0E246E5D
:1003280030EC07F0530E236E000E246E30EC07F00D
:10033800FB0E236EFF0E246E30EC07F0700E236E5A
:10034800FF0E246E30EC07F0900E236E000E246E24
:1003580030EC07F0FD0E236EFF0E246E30EC07F034
:10036800000E066E000E056E000E086E000E076E7B
:100378007F0E096EFF0E0A6E27EC03F0000E066E64
:100388000F0E056E000E086E030E076E530E096EF3
:10039800000E0A6E27EC03F0000E066E0F0E056EB7
:1003A800000E086E060E076E900E096E000E0A6E9D
:1003B80027EC03F0000E136E0A0E126E000E156E77
:1003C800020E146EB40E166EFF0E176EEDEC03F0EF
:1003D800000E136E0A0E126E000E156E050E146EC8
:1003E8008D0E166EFF0E176EEDEC03F0D6D65E0E70
:1003F800236EFF0E246E30EC07F0000E066E0A0E18
:10040800056E000E086E030E076ED80E096EFF0EFD
:100418000A6E27EC03F0000E066E0A0E056E000E3B
:10042800086E050E076EE10E096EFF0E0A6E27ECC8
:1004380003F0B3D6400E236EFF0E246E30EC07F0A7
:10044800000E066E0A0E056E000E086E030E076E8D
:10045800C00E096EFF0E0A6E27EC03F0000E066E42
:100468000A0E056E000E086E050E076ECC0E096E9C
:10047800FF0E0A6E27EC03F090D613EC08F0150E69
:100488002A6E4B0E296EBE0EE82EFED7292EFCD7FB
:100498002A2EFAD700F000F02AD612C0D9FF13C0CE
:1004A800DAFFDECF16F0DDCF17F016C0F6FF17C063
:1004B800F7FF000EF86E0F0EF76403D00800F55032
:1004C80005D0F6CFE9FFF7CFEAFFEF50250AD8A409
:1004D8008FD012C0D9FF13C0DAFFDE2A000EDD224A
:1004E800000E366E000E356E35C039F036C03AF063
:1004F8003768386812C0D9FF13C0DAFFDECF16F0AC
:10050800DDCF17F016C0F6FF17C0F7FF000EF86E24
:100518000F0EF76403D00800F55005D0F6CFE9FFB9
:10052800F7CFEAFFEF506E0AD8A428D012C0D9FF3F
:1005380013C0DAFFDE2A000EDD2214C0D9FF15C071
:10054800DAFFDFCF16F0020EDE26DFCF17F0000E3F
:10055800DD2216C0D9FF17C0DAFFDECF19F0DDCFD4
:100568001AF019C0D9FF1AC0DAFF33C0DEFF34C051
:10057800DDFF000E116E000E106E120012C0D9FFC2
:1005880013C0DAFFDECF16F0DDCF17F016C0F6FF86
:1005980017C0F7FF000EF86E0F0EF76403D00800BF
:1005A800F55005D0F6CFE9FFF7CFEAFFEF50250A5F
:1005B800D8A416D012C0D9FF13C0DAFFDE2A000E65
:1005C800DD22000E086E250E076E10C009F011C05E
:1005D8000AF0E4EC05F0000E116E010E106E120028
:1005E80012C0D9FF13C0DAFFDE2A000EDD22C1D700
:1005F80012C0D9FF13C0DAFFDECF16F0DDCF17F037
:1006080016C0F6FF17C0F7FF000EF86E0F0EF7645E
:1006180003D00800F55005D0F6CFE9FFF7CFEAFF81
:10062800EF50186E1850076E086A10C009F011C014
:100638000AF0E4EC05F012C0D9FF13C0DAFFDE2A95
:10064800000EDD22C8D7B0D0000E166E800E0B6EDD
:10065800FD0E0C6E16500D6E0E6AD8900D360E36C5
:1006680009C0F6FF0AC0F7FF000EF86E0F0EF76418
:1006780003D00800F55005D0F6CFE9FFF7CFEAFF21
:10068800EF500F6E0F50140DC00E106EED0E116E60
:10069800F3501026F45011220D5010260E5011223E
:1006A8000B5010260C50112210C0F6FF11C0F7FF96
:1006B800F86A07C012F008C013F0070ED890123677
:1006C8001336E82EFBD79B0E146E000E156E1250D3
:1006D80014261350152216501426000E1522055004
:1006E8001424D96E06501520DA6E0800F5CFDFFF06
:1006F800810E0B6EFD0E0C6E09C0F6FF0AC0F7FFE7
:10070800000EF86E0F0EF76403D00800F55005D000
:10071800F6CFE9FFF7CFEAFFEF500D6E0D50140D3D
:10072800C00E0E6EED0E0F6EF3500E26F4500F2213
:100738001650020DF3500E26F4500F220B500E26C1
:100748000C500F220EC0F6FF0FC0F7FFF86A07C063
:1007580010F008C011F0070ED89010361136E82EA8
:10076800FBD79B0E126E000E136E800E1226000E23
:100778001322105012261150132216501226000E62
:10078800132205501224D96E06501320DA6E080081
:10079800F5CFDFFF162A090E166458D70A0E05266C
:1007A800000E0622094A0A2A09C0F6FF0AC0F7FF06
:1007B800000EF86E0F0EF76403D00800F55005D050
:1007C800F6CFE9FFF7CFEAFFEF500009D8B41200DF
:1007D8003BD75CD0000E1F6E000E1E6E000E1D6E05
:1007E800000E1C6E17D01D0E1E24F66EEC0E1F2078
:1007F800F76EF86A000EF8220800F550186E196AAC
:10080800010E1826000E192218501E2619501F22F4
:100818001C4A1D2AE00E186EFF0E196E16C0F6FF50
:1008280017C0F7FFF86A0800F5501A6E1B6A1850CF
:100838001A2619501B221A501C5C1B501D58D8A090
:10084800D2D712C005F013C006F014C007F015C0C7
:1008580008F01EC009F01FC00AF0A1EC04F01D0E3C
:100868001E24F66EEC0E1F20F76EF86A000EF822B2
:100878000800F550186E196A010E1826000E192284
:100888001850122619501322164A172A16C0F6FFB6
:1008980017C0F7FFF86A0800F5500009D8B412002D
:1008A80099D7AE0E66EC07F0D50E66EC07F0800E11
:1008B80066EC07F0A80E66EC07F03F0E66EC07F052
:1008C800D30E66EC07F0000E66EC07F0400E66ECFF
:1008D80007F08D0E66EC07F0140E66EC07F0200E9C
:1008E80066EC07F0000E66EC07F0A10E66EC07F068
:1008F800C80E66EC07F0DA0E66EC07F0120E66EC2E
:1009080007F0810E66EC07F0CF0E66EC07F0D90E03
:1009180066EC07F0F10E66EC07F0DB0E66EC07F00C
:10092800400E66EC07F0A40E66EC07F0A60E66EC27
:1009380007F0AF0E66EC07F0120007C00BF008C016
:100948000CF0070ED8900B360C36E82EFBD7055066
:100958000B240F6E06500C20106E000E116E27D05F
:100968001D0E0B6EEC0E0C6E11500B26000E0C2299
:1009780009500B260A500C22010E0B26000E0C22E1
:100988000BC0F6FF0CC0F7FFF86A9B0E0D6E000E49
:100998000E6E11500D26000E0E220F500D24D96E2A
:1009A80010500E20DA6E0800F5CFDFFF112A1D0E59
:1009B8000924F66EEC0E0A20F76EF86A000EF8228B
:1009C8000900F550115CD8B01200CAD72B0E42248A
:1009D800D96EDA6A000EDA22000EDF6EABA412D0EE
:1009E8002B0E4224D96EDA6A000EDA22DF8201D891
:1009F80009D00500FA6E4C50FD6E4D50FE6EFF6A30
:100A0800FA501200ABA213D02B0E4224D96EDA6A28
:100A1800000EDA22DF8401D80AD00500FA6E000140
:100A28009951FD6E9A51FE6EFF6AFA5012002B0E14
:100A38004224D96EDA6A000EDA22DF50D8B40CD01C
:100A480001D812000500FA6E00019751FD6E985109
:100A5800FE6EFF6AFA50120056EC07F01200210EE3
:100A680066EC07F0000E66EC07F07F0E66EC07F008
:100A7800220E66EC07F0000E66EC07F0070E66EC37
:100A880007F0000E0C6ED9EC07F0780EA9EC07F011
:100A9800400EA9EC07F0000E0D6E0C50100D08C0AA
:100AA8000AF009C00BF0F3500A26F4500B220D503F
:100AB8000A24D96E000E0B20DA6EDF50A9EC07F07D
:100AC8000D2A0F0E0D64E9D7D3EC07F00C2A3F0E60
:100AD8000C64D9D71200130EF66E100EF76E000EC6
:100AE800F86E00EE90F010EE07F00900F5CFEEFF7B
:100AF800E550E150FAE10C0EF66E100EF76E000E9E
:100B0800F86E00EE53F010EE07F00900F5CFEEFF97
:100B1800E550E150FAE100EE9BF014EE00F0EE6AC9
:100B2800E550E150FCE1E250FAE100EE60F0300EF1
:100B3800EE6AE806FDE100EE2BF01F0EEE6AE8060D
:100B4800FDE15A905A92000134EF00F09D9AD40EBC
:100B5800056E090E066EEEEC07F09D98360E056ED2
:100B68000E0E066EE9EC07F0080EB86E900EAB6E2E
:100B7800240EAC6EA00EAF6E010EB06E320E056E76
:100B8800100E066EF8EC07F01A0E056E100E066EC3
:100B9800F3EC07F0200E056E100E066EFDEC07F064
:100BA800000E3F6E000E446E000E436E080E526E2D
:100BB800000E426E000E416E000E406E9D8A1200BD
:100BC80009500A10D8B404D009500A10D8A404D087
:100BD8000750DFEC07F0120020EE04F00950D92688
:100BE8000A50DA22DE50DE10D8B416D020EE04F017
:100BF8000950D9260A50DA2210EE02F00950E126EF
:100C08000A50E222DE50E65CE650800A0F6EDE50A3
:100C1800800A0F58D8B0120020EE02F00950D926E9
:100C28000A50DA22DE2A000EDD22120007C0D9FFA0
:100C380008C0DAFF000EDF6E000E0B6ECCEC07F07A
:100C480005D0640ECE6402D0010E120083A0F9D73D
:100C5800CCEC07F004D0640ECE6401D0F5D783B095
:100C6800FAD7320ECE6411D00B500708096E010E68
:100C78000A6E092A02D0D8900A36092EFCD707C076
:100C8800D9FF08C0DAFF0A50DF120B2A070E0B64DF
:100C9800D5D7000E12001DC021F01EC022F0000E94
:100CA800346E000E336E12D01BC010F01CC011F051
:100CB800210E126E000E136E1FC014F020C015F026
:100CC80051EC02F0105033261150342221C0F6FFA7
:100CD80022C0F7FF000EF86E0F0EF76403D008006D
:100CE800F55005D0F6CFE9FFF7CFEAFFEF5000093E
:100CF800D8A4DAD733C01BF034C01CF01200000EA1
:100D08000A6E000E096E07500810D8B41CD0010EE8
:100D18000B6E04D0D890073608360B2A08AEFAD7DF
:100D2800D89009360A360750055C08500658D8A0EE
:100D380005D00750055E0850065A0980D890083239
:100D480007320B2EEDD709C005F00AC006F01200D5
:100D58000E500F10D8B418D0010E106E04D0D890D1
:100D68000E360F36102A0FAEFAD70E500C5C0F5005
:100D78000D58D8A004D00E500C5E0F500D5AD890C4
:100D88000F320E32102EF1D70CC00CF00DC00DF042
:100D98001200056E5250D8B4FDD79DB803D005C0D7
:100DA800ADFF10D09D98880E4424D96EDA6A000EE3
:100DB800DA2205C0DFFF442A070E446402D0000E81
:100DC800446E52069D881200CCEC07F017EC08F030
:100DD80083B003D0630ECE64FBD7630ECE6402D01B
:100DE800000E1200CCEC07F083A003D0630ECE6493
:100DF800FBD7630ECE6401D0F3D7010E1200000EAC
:100E08008D6E000E8C6E000E896E000E8A6E000EBE
:100E18008B6E070E966E92689368BF0E946E9568F7
:100E28007E681F0E7F6E000E7C6EF18E1200080E1B
:100E3800526010D0880E4324D96EDA6A000EDA2286
:100E4800DF50AD6E432A070E436402D0000E436E96
:100E5800522A12009D981200250E276E000E286E49
:100E6800000E1B6E000E1C6E23C01DF024C01EF069
:100E7800270E1F6E000E206E4FEC06F01200000EBB
:100E8800066E000E056E9B0E0524D96E000E062018
:100E9800DA6E000EDF6E054A062A040E065CD8B02C
:100EA8001200F1D7800E4224D96EDA6A000EDA22D7
:100EB800AECFDFFF422A070E426402D0000E426E18
:100EC800402A1200076ED9EC07F0780EA9EC07F05B
:100ED800000EA9EC07F00750A9EC07F0D3EC07F0D7
:100EE800120095908C90820E056EDE0EE82EFED7CD
:100EF800052EFCD78C80280EE82EFED79580120090
:100F0800CDA407D0CD900650CF6E05C0CEFFCD80C2
:100F180012000650CF6E05C0CEFF1200000ECF6E35
:100F2800000ECE6ECECF4AF0CFCF4BF09E90050E7E
:100F3800CD6E120015EC08F003EC07F0E4EC07F0B6
:100F480092EC07F0AAEC05F01200066EBCEC07F074
:100F58009E9606C0C9FF02EC08F0C5501200C6866E
:100F6800C694C692C690C68A090EC86EC59A120063
:100F7800C7B4FED7C5CF05F01F0E0516D8B41200AA
:100F8800F9D79B0E086E000E096E33EC05F01200BF
:100F98004AC005F04BC006F084EC07F01200BCEC28
:100FA80007F0C584C5A41200FDD7BCEC07F0C580C6
:100FB800C5A01200FDD7066E0650CDEC06F0120053
:100FC800720ED36E400E9B6E120005C050F006C024
:100FD80051F0120005C04EF006C04FF0120005C0D7
:100FE80099F006C09AF0120005C04CF006C04DF00A
:100FF800120005C097F006C098F012009EA6FED712
:101008009E9612002030302E3043002030302E3093
:101018002500AB98AB88120056EC07F01200CD9073
:0C1028001200D09E1200CD8012001200B9
:10E81C0000000000000000C02010101020C00000FC
:10E82C0000000000000000000000000000000000DC
:10E83C0000000000000000000000000000000000CC
:10E84C0000000000000000000000000000000000BC
:10E85C0000000000000000000000000000000000AC
:10E86C00000000000000000000000000000000009C
:10E87C00000000000000000000000000000000008C
:10E88C00000000000000000000000000000000007C
:10E89C0000000000000000FF0000494949FF000093
:10E8AC00000000000000000000000000000000005C
:10E8BC00000000000000000000000000000000004C
:10E8CC00000000000000000000000000000000003C
:10E8DC00000000000000000000000000000000002C
:10E8EC00000000000000000000000000000000001C
:10E8FC00000000000000000000000000000000000C
:10E90C0000000000000000000000000000000000FB
:10E91C000000000000F0C8E7E0F0F0F0E0E7C8F01D
:10E92C0000000000000000000000000000000000DB
:10E93C0000000000000000000000000000000000CB
:10E94C0000000000000000000000000000000000BB
:10E95C0000000000000000000000000000000000AB
:10E96C00000000000000000000000000000000009B
:10E97C00000000000000000000000000000000008B
:10E98C00000000000000000000000000000000007B
:10E99C0000000000000103070F0F0F0F0F0703010A
:10E9AC00000000000000000000000000000000005B
:10E9BC00000000000000000000000000000000004B
:10E9CC00000000000000000000000000000000003B
:10E9DC00000000000000000000000000000000002B
:10E9EC00000000000000000000000000000000001B
:10E9FC00000000000000000000000000000000000B
:10EA0C0000000000000000000000000000000000FA
:10EA1C0000000000000000000000000000000000EA
:10EA2C0000000000000000000000000000000000DA
:10EA3C0000000000000000000000000000000000CA
:10EA4C0000000000000000000000000000000000BA
:10EA5C0000000000000000000000000000000000AA
:10EA6C00000000000000000000000000000000009A
:10EA7C00000000000000000000000000000000008A
:10EA8C00000000000000000000000000000000007A
:10EA9C0000000000000000E0FCFFFFFCE0000000B4
:10EAAC00000000000000000000000000000000005A
:10EABC00000000000000000000000000000000004A
:10EACC00000000000000000000000000000000003A
:10EADC00000000000000000000000000000000002A
:10EAEC00000000000000000000000000000000001A
:10EAFC00000000000000000000000000000000000A
:10EB0C0000000000000000000000000000000000F9
:10EB1C000000000000F8FFFFFFFF70018FFFF800FE
:10EB2C0000000000000000000000000000000000D9
:10EB3C0000000000000000000000000000000000C9
:10EB4C0000000000000000000000000000000000B9
:10EB5C0000000000000000000000000000000000A9
:10EB6C000000000000000000000000000000000099
:10EB7C000000000000000000000000000000000089
:10EB8C000000000000000000000000000000000079
:10EB9C000000000000000103070606070301000047
:10EBAC000000000000000000000000000000000059
:10EBBC000000000000000000000000000000000049
:10EBCC000000000000000000000000000000000039
:10EBDC000000000000000000000000000000000029
:10EBEC000000000000000000000000000000000019
:10EBFC000000000000000000000000000000000009
:10EC0C0000000000000000000000000000000000F8
:10EC1C00000100015E0306000605287C287C2805FF
:10EC2C00242A7F2A100362184605304C5A245001BE
:10EC3C0006023C4202423C0528107C102803103886
:10EC4C001001C003101010014003601806043C4270
:10EC5C00423C03447E40044462524C034A4A34040E
:10EC6C001E107C10034E4A32043C4A4A3003621296
:10EC7C000E04344A4A34040C52523C014802806857
:10EC8C000310284403282828034428100302520C9C
:10EC9C00053C42522A3C047C12127C047E4A4A34C3
:10ECAC00043C424224047E42423C037E4A4A037E98
:10ECBC000A0A043C425234047E08087E03427E4217
:10ECCC000342423E047E081462037E4040057E04EB
:10ECDC0008047E057E0418207E043C42423C047EDF
:10ECEC0012120C043C4242BC047E12126C04444AC4
:10ECFC004A3003027E02043E40403E05061860186E
:10ED0C0006053E403E403E054224182442049EA087
:10ED1C00A07E0462524A46027E42030618600242FA
:10ED2C007E0320102004808080800204080420547C
:10ED3C005478047E44443804384444280438444409
:10ED4C007E0438545458027C0A0498A4A47C047E93
:10ED5C00040478017A02403A047E102844017E05AE
:10ED6C007C04780478047C04047804384444380423
:10ED7C00FC24241804182424FC027C040448545455
:10ED8C002003043E44043C40403C050C3040300C15
:10ED9C00053C403C403C054428102844049CA0A061
:10EDAC007C0364544C0308364101FF0341360804CC
:10EDBC0020102010000000000000000000000000E7
:10EDCC000000000000000000000000000000000037
:10EDDC00FE1B00000000000000000000000000000E
:10EDEC001E000000000000001E00000000000000DB
:10EDFC0000012019A00778012619A0077801260127
:10EE0C0020010000000000001C1826104210FF3FDB
:10EE1C008211020F000000001C10220822042203A1
:10EE2C009C00400E301108110411020E00078008DE
:10EE3C005C106210A21132131C1C00180016800109
:10EE4C0000000000000000001E0000000000000098
:10EE5C0000000000000000000000E00718180C3053
:10EE6C000420024002400000000002400240042046
:10EE7C000C301818E007000000000000000008002B
:10EE8C001800F0004E00F000180008000000000010
:10EE9C000002000200020002E01F00020002000259
:10EEAC000002000000000000000000980078000044
:10EEBC000000000000000000000000000001000144
:10EECC000001000100010001000000000000000032
:10EEDC0000000018001800000000000000000000F6
:10EEEC00000000400030000C0003C00030000C009B
:10EEFC00020000000000F0030C0C021002100210C3
:10EF0C000C0CF003000000000000041004100410AE
:10EF1C00FE1F00100010001000000000000006187A
:10EF2C00021402120211C2103C100000000000007A
:10EF3C00000000000210421042104210BC0F0000F2
:10EF4C00000000000003C002200218020402FE1F91
:10EF5C000002000200000000000000003E10221021
:10EF6C002210420882070000000000000000F00799
:10EF7C004C082210221022104208800700000000CA
:10EF8C000000020002180207C20032000A0006004C
:10EF9C000000000000001C0FA21042104210A21032
:10EFAC00A2091C0600000000000078008410021169
:10EFBC0002110211840CF803000000000000000094
:10EFCC000000601860180000000000000000000045
:10EFDC000000000000006098607800000000000055
:10EFEC000000000000000000000300038004800407
:10EFFC0040084008201000000000800480048004B9
:10F00C008004800480048004800400000000201030
:10F01C004008400880048004000300030000000046
:10F02C0000000E000200021B8200420026001C00A1
:10F03C0000000000F003180C0418E21312140A1656
:10F04C008A1BFC07000400040010000E80037002F1
:10F05C0018023002C0020003000C00100000F81F60
:10F06C0088108810881088104811300E000000009D
:10F07C00C003300C100808100810081008101810E5
:10F08C00000000000000F81F0810081008100810FD
:10F09C001008E007000000000000F81F081108111C
:10F0AC000811081108110810000000000000F81FDA
:10F0BC00080108010801080108010800000000000F
:10F0CC000000C003300C10080810081008110811BB
:10F0DC00181F00000000F81F0001000100010001D2
:10F0EC000001F81F000000000000081008100810B4
:10F0FC00F81F0810081008100000000000000000A5
:10F10C000010081008100810F80F00000000000094
:10F11C000000F81F80008001400220041004080841
:10F12C00001000000000F81F00100010001000106C
:10F13C000010001000000000F81F3800E00100076C
:10F14C000006C0013800F81F000000000000F81F86
:10F15C0010006000800100060008F81F000000008D
:10F16C000000E0071008081008100810081010081C
:10F17C00E00700000000F81F080108010801080161
:10F18C0088007000000000000000E0071008081064
:10F19C000810081008301048E04700000000F81F65
:10F1AC000801080108038804700800100000000022
:10F1BC000000701848108810881008110809180EE3
:10F1CC00000000000800080008000800F81F0800F4
:10F1DC0008000800080000000000F80700180010E4
:10F1EC00001000100008F8070000000008003000B4
:10F1FC00C0010006001800180007C000300008000D
:10F20C001800E003001C000FE000C001000E001C01
:10F21C00E00318000810100820044002800180014F
:10F22C004002200410080810080010006000800044
:10F23C00001F80004000200010000800000008188B
:10F24C000814081208118810481028101810000013
:10F25C00000000000000FE7F02400240024002401D
:10F26C0000000000000002000C003000C000000391
:10F27C00000C003000400000000002400240024040
:10F28C000240FE7F000000000000000000000004AF
:10F29C000003E00038000E00700080030004000042
:10F2AC000020002000200020002000200020002052
:10F2BC0000200020000000000000000001000200FF
:10F2CC0000000000000000000000000C20122011C3
:10F2DC0020112009C01F0010000000000000FE1FBC
:10F2EC00400820102010201060088007000000004B
:10F2FC000000800740082010201020102010201043
:10F30C000000000000008007401820102010201082
:10F31C004008FE1F0000000000008007400920117B
:10F32C00201120112011C01100000000000020004D
:10F33C002000FC1F240022002200220022000000DA
:10F34C000000800740982090209020904048E03F9B
:10F35C00000000000000FE1F800040002000200084
:10F36C002000C01F0000000000002000200026002C
:10F37C00E61F0000000000000000000000000080FC
:10F38C00208020802680E67F000000000000000026
:10F39C000000FE1F00010003800440044008201000
:10F3AC000000000000000000020002000200FE1F2E
:10F3BC000000000000000000E01F400020002000C2
:10F3CC00C01F400020002000C01F00000000E01FF4
:10F3DC00C0004000200020002000C01F00000000E2
:10F3EC0000008007400820102010201040088007E3
:10F3FC00000000000000E0FF40082010201020104A
:10F40C0060088007000000000000800740182010F2
:10F41C00201020104008E0FF000000000000000059
:10F42C00E01F8000400020002000E00000000000F1
:10F43C000000C0182011201120122012200C0000F6
:10F44C0000000000000020002000F80F2010201009
:10F45C0020102010000000000000E00F0010001031
:10F46C0000100008E01F0000000000002000C00198
:10F47C00000600180010000C0003C0002000000063
:10F48C00600080070018000EC0018001000E0018FB
:10F49C008007600000002010400880040003000377
:10F4AC0080044008201000002080C08000830046AB
:10F4BC000038001800060001C000200000002010D9
:10F4CC002018201420122011A01060102010000011
:10F4DC000000000000010001FC3E0240024002401E
:10F4EC00000000000000000000000000FE7F000093
:10F4FC00000000000000000000000000024002407C
:10F50C000240FC3E000100010000000000038000EE
:10F51C008000800000010001000200020002800156
:10F52C000000801FC010201010102010C010801F71
:10F53C0000000000C003300C1008081008100890E0
:10F54C0008B018D0000000000000E00F04100010FC
:10F55C0000100408E01F00000000000000008007FD
:10F56C0040092011241122112011C01100000000AB
:10F57C000000000C2412221122112409C01F0010BB
:10F58C00000000000000000C24122011201124099E
:10F59C00C01F0010000000000000000C22122411FB
:10F5AC0020112009C01F0010000000000000000CFA
:10F5BC002012221125112209C01F0010000000008A
:10F5CC000000800740082010209020B020D0201090
:10F5DC0000000000000080074409221122112411B0
:10F5EC002011C01100000000000080074009241108
:10F5FC00201120112411C011000000000000800710
:10F60C0040092211241120112011C011000000000A
:10F61C000000200024002000E01F04000000000077
:10F62C00000000000000200024002200E21F040063
:10F63C00000000000000000000002000200022005C
:10F64C00E41F000000000000000000000010000E8D
:10F65C008103700218023002C1020003000C00107A
:10F66C000010000E800372020D021D02F2028003D4
:10F67C00000E00100000F81F081108110A110911E2
:10F68C000811081000000000200E2013201120117A
:10F69C00C00F201920112011C01100000010000C07
:10F6AC00800760041804F81F0811081108100000E6
:10F6BC000000800744082210221024104008800704
:10F6CC0000000000000080074408201020102410C7
:10F6DC00400880070000000000008007420824104A
:10F6EC002010201040088007000000000000E00FF0
:10F6FC000410021002100408E01F000000000000BB
:10F70C000000E00F0210041000100008E01F0000C1
:10F71C00000000002080C0800483004600380418DC
:10F72C0000060001C00020000000E00711080810CE
:10F73C000810081009101008E00700000000F80776
:10F74C0001180010001000100108F807000000005C
:10F75C0000008017400820142013A0104008A007B8
:10F76C00000000000000000000104018FC174210C0
:10F77C0042100210000000000000E017100C0816E8
:10F78C000811881068103008E807000000002010ED
:10F79C00400880040003000380044008201000008F
:10F7AC000000008020802080FE7F210021000100CD
:10F7BC00000000000000000C20122011241122096E
:10F7CC00C01F0010000000000000200020002000DE
:10F7DC00E41F020000000000000000000000800791
:10F7EC004008201024102210400880070000000060
:10F7FC000000E00F0010001004100208E01F0000D1
:10F80C00000000000000E01FC4004200240024009F
:10F81C002200C01F000000000000F81F1200610051
:10F82C00830102060108F81F000000000000000020
:10F83C0032004A004A004A007C00400000000000F0
:10F84C00000000003C0042004200420042003C002C
:10F85C00000000000000007000C800880084608375
:10F86C00008000E000000000000038004400BA00F6
:10F87C00AA00BA004400380000000000000080001C
:10F88C0080008000800080008000800080070000E5
:10F89C0002107E0C00028001600010008C10821C93
:10F8AC008014001302107E0C000280016000100610
:10F8BC000C058204801F0004000000000000000002
:10F8CC00000060FF000000000000000000000001CC
:10F8DC00800240042008000180024004200800003F
:10F8EC00000020084004800200012008400480022F
:10F8FC0000010000DB6CDB6C0000DB6CDB6C0000DF
:10F90C00DB6CDB6C000000006CDB6CDBDB6CFFFF8A
:10F91C006CDBDB6CFFFF6CDBDB6CDB6CFFFFFFFF7E
:10F92C00DB6CFFFFFFFFDB6CFFFFFFFFDB6CDB6CB7
:10F93C000000000000000000FFFF000000000000BD
:10F94C00000000000001000100010001FFFF0000A9
:10F95C0000000000000000000010000E8003700288
:10F96C001A023102C0020003000C00100010000E3D
:10F97C008003720219023102C2020003000C001053
:10F98C000010000E800371021A023002C002000344
:10F99C00000C0010F0030C0CE619321312121212A8
:10F9AC00161A0C0CF0030000800280028002FFFE8D
:10F9BC000000FFFF0000000000000000000000003D
:10F9CC000000FFFF0000FFFF00000000000000002F
:10F9DC0080028002800280FE800080FF0000000018
:10F9EC0000000000800280028002FF020002FF0380
:10F9FC0000000000000000000000F0030804040CEC
:10FA0C000408FE1F040804080000000002000400A3
:10FA1C009804A004C01FA004900408000400020075
:10FA2C00000100010001000100FF000000000000C7
:10FA3C00000000000000000000000000FF010001B9
:10FA4C0000010001000100010001000100010001A2
:10FA5C00FF01000100010001000100010001000193
:10FA6C000001000100FF0001000100010001000184
:10FA7C000000000000000000FFFF00010001000179
:10FA8C000001000100010001000100010001000162
:10FA9C000001000100010001000100010001000152
:10FAAC00FFFF000100010001000100010000000C3B
:10FABC002412221124112409C21F0010000000007E
:10FACC000010000E820371021B023202C1020003FD
:10FADC00000C0010000000000000FF030002FF02F9
:10FAEC00800280028002800200000000000080FF83
:10FAFC00800080FE800280028002800280028002F0
:10FB0C008002FF020002FF0280028002800280025B
:10FB1C0080028002800280FE800080FE80028002D3
:10FB2C0080028002000000000000FFFF0000FFFECA
:10FB3C0080028002800280028002800280028002A9
:10FB4C008002800280028002800280028002800299
:10FB5C008002FFFE0000FFFE800280028002800215
:10FB6C0000000804F0031002100210021002F0034F
:10FB7C0008040000000082074A082E1024102A10E6
:10FB8C007008C007000000008000F81F8810881063
:10FB9C00081008101008E007000000000000F81F13
:10FBAC0008110A11091109110A11081000000000AE
:10FBBC000000F81F0911081108110811091108108B
:10FBCC00000000000000F81F0811081109110A11AB
:10FBDC000811081000000000000020002000200088
:10FBEC00E01F0000000000000000000000000810F2
:10FBFC0008100810FA1F0910081008100000000067
:10FC0C000000081008100A10F91F09100A1008103B
:10FC1C00000000000000081009100810F81F081060
:10FC2C000910081000000000000100010001000193
:10FC3C00FF010000000000000000000000000000B8
:10FC4C000000000000FF00010001000100010001A4
:10FC5C00FFFFFFFFFFFFFFFFFFFFFFFFFFFFFFFFA8
:10FC6C00FFFFFFFF00FF00FF00FF00FF00FF00FF92
:10FC7C0000FF00FF00FF00FF00000000000000007C
:10FC8C007E7C000000000000000000000000081056
:10FC9C0008100910FA1F08100810081000000000C6
:10FCAC00FF00FF00FF00FF00FF00FF00FF00FF0050
:10FCBC00FF00FF000000E007100808100A100910F0
:10FCCC0008101008E00700000000FC1F02000200F2
:10FCDC00E2101C110012000C000000000000E007F4
:10FCEC0010080A10091009100A101008E00700008B
:10FCFC000000E007100809100A100810081010087E
:10FD0C00E007000000008007440822102410241093
:10FD1C0042088007000000000000E00712080910EC
:10FD2C000B100A1009101008E00700000000E0FF9B
:10FD3C0000080010001000100008E01F0000000078
:10FD4C000000FEFF400820102010201060088007E3
:10FD5C00000000000000F81F2004200420042004F0
:10FD6C002002C001000000000000F807001800107D
:10FD7C00021001100008F807000000000000F8074E
:10FD8C0000180210011001100208F8070000000012
:10FD9C000000F80700180110021000100008F80706
:10FDAC00000000002080C080008300460438021848
:10FDBC0000060001C0002000080010006000800058
:10FDCC00021F81004000200010000800010001000B
:10FDDC00010001000100010001000100010001000F
:10FDEC000000000000000200010000000000000004
:10FDFC0000000000000000000001000100010001F3
:10FE0C000001000100000000000080108010801034
:10FE1C008010E013801080108010000000A000A063
:10FE2C0000A000A000A000A000A000A000A000A0C6
:10FE3C0042104A085A0436038000400630058804F4
:10FE4C00841F020400001C003E007E00FE7F0200A6
:10FE5C000200FE7F0000000000000000DC61324365
:10FE6C0022426246424C823B00000000000000022D
:10FE7C0000020002601A601A000200020002000078
:10FE8C000000000000000000008000A000C0000086
:10FE9C00000000000000000000000C001200120026
:10FEAC000C00000000000000000000000100000039
:10FEBC000000000001000000000000000000000035
:10FECC000000000000030003000000000000000020
:10FEDC0000000000000002007E0000000000000096
:10FEEC00000000000000000042004A004A004A00E6
:10FEFC00360000000000000000000000420062001C
:10FF0C00520052004C000000000000000000E01FF6
:10FF1C00E01FE01FE01FE01FE01FE01FE01F0000DC
:10FF2C0000000000000000000000000000000000C5
:10FF3C00000000004E6F20726573706F6E73652049
:10FF4C0066726F6D207468652073656E736F720DC9
:10FF5C000A00436865636B73756D204572726F722E
:10FF6C00210D0A0046657563687469676B65697471
:10FF7C003A200020546865726D6F6D65746572204F
:10FF8C000046657563687469676B6569743A0054FB
:10FF9C00656D706572617475723A200054696D6597
:10FFAC00206F7574210D0A0054656D706572617453
:10FFBC0075723A004E6F20726573706F6E736500C8
:10FFCC0066726F6D2053656E736F72004368656364
:10FFDC006B73756D004572726F7221004F757421D1
:10FFEC000056312E310054696D65004D4B340009BB
:04FFFC00000D0000F4
:020000040020DA
:08000000FFFFFFFFFFFFFFFF00
:020000040030CA
:0E000000FF081F1EFF0B81FF0FC00FE00F4017
:00000001FF
